:020000040800F2
:100000000000022011580008FD260008FF26000805
:10001000012700080327000805270008000000004A
:10002000000000000000000000000000072700089A
:1000300009270008000000000B2700080D27000812
:1000400061580008615800086158000861580008AC
:10005000615800086158000861580008615800089C
:100060006158000861580008615800081527000809
:1000700025270008352700084527000855270008D0
:1000800065270008752700086158000861580008B6
:10009000615800086158000861580008615800085C
:1000A0006158000885270008615800086158000859
:1000B000615800086158000861580008615800083C
:1000C000615800086158000861580008615800082C
:1000D0006158000895270008A5270008B5270008E3
:1000E000615800086158000861580008615800080C
:1000F000615800086158000861580008C5270008C9
:1001000061580008615800086158000861580008EB
:10011000D5270008E5270008615800086158000845
:10012000F5270008615800080528000861580008F4
:10013000615800080000000000000000615800083D
:1001400061580008615800086158000861580008AB
:100150006158000861580008152800086158000817
:10016000615800086158000861580008615800088B
:10017000615800086158000861580008000000003C
:1001800000000000615800080000000000000000AE
:1001900061580008000000000000000061580008DD
:1001A000000000000000000000000000615800088E
:1001B000615800086158000861580008615800083B
:0401C000615800087A
:1001C80010B5054C237833B9044B13B10448AFF389
:1001D80000800123237010BD800000200000000073
:1001E80048AA000808B5034B1BB103490348AFF3FD
:1001F800008008BD000000008400002048AA000814
:1002080081F0004102E000BF83F0004330B54FEABF
:1002180041044FEA430594EA050F08BF90EA020F2C
:100228001FBF54EA000C55EA020C7FEA645C7FEABF
:10023800655C00F0E2804FEA5454D4EB5555B8BFE2
:100248006D420CDD2C4480EA020281EA030382EA53
:10025800000083EA010180EA020281EA0303362DE5
:1002680088BF30BD11F0004F4FEA01314FF4801CB8
:100278004CEA113102D0404261EB410113F0004FCA
:100288004FEA03334CEA133302D0524263EB430381
:1002980094EA050F00F0A780A4F10104D5F1200E1F
:1002A8000DDB02FA0EFC22FA05F2801841F100017A
:1002B80003FA0EF2801843FA05F359410EE0A5F14E
:1002C80020050EF1200E012A03FA0EFC28BF4CF07F
:1002D800020C43FA05F3C01851EBE37101F0004535
:1002E80007D54FF0000EDCF1000C7EEB00006EEB42
:1002F8000101B1F5801F1BD3B1F5001F0CD34908CC
:100308005FEA30004FEA3C0C04F101044FEA445222
:1003180012F5800F80F09A80BCF1004F08BF5FEAA9
:10032800500C50F1000041EB045141EA050130BD89
:100338005FEA4C0C404141EB0101013C28BFB1F59B
:10034800801FE9D291F0000F04BF01460020B1FAE6
:1003580081F308BF2033A3F10B03B3F120020CDAB9
:100368000C3208DD02F1140CC2F10C0201FA0CF097
:1003780021FA02F10CE002F11402D8BFC2F1200CFC
:1003880001FA02F120FA0CFCDCBF41EA0C019040B2
:10039800E41AA2BF01EB0451294330BD6FEA0404FB
:1003A8001F3C1CDA0C340EDC04F11404C4F12002E6
:1003B80020FA04F001FA02F340EA030021FA04F3F8
:1003C80045EA030130BDC4F10C04C4F1200220FA4F
:1003D80002F001FA04F340EA0300294630BD21FA8D
:1003E80004F0294630BD94F0000F83F4801306BF53
:1003F80081F480110134013D4EE77FEA645C18BF47
:100408007FEA655C29D094EA050F08BF90EA020FDD
:1004180005D054EA000C04BF1946104630BD91EAD5
:10042800030F1EBF0021002030BD5FEA545C05D1D8
:100438004000494128BF41F0004130BD14F5800417
:100448003CBF01F5801130BD01F0004545F0FE418B
:1004580041F470014FF0000030BD7FEA645C1ABFC0
:10046800194610467FEA655C1CBF0B46024650EAF7
:10047800013406BF52EA033591EA030F41F4002123
:1004880030BD00BF90F0000F04BF0021704730B5A9
:100498004FF4806404F132044FF000054FF000017E
:1004A80050E700BF90F0000F04BF0021704730B53F
:1004B8004FF4806404F1320410F0004548BF404214
:1004C8004FF000013EE700BF42004FEAE2014FEA69
:1004D80031014FEA02701FBF12F07F4393F07F4F44
:1004E80081F06051704732F07F4208BF704793F047
:1004F8007F4F04BF41F40021704730B54FF460745A
:1005080001F0004521F000411CE700BF50EA01025C
:1005180008BF704730B54FF000050AE050EA010205
:1005280008BF704730B511F0004502D5404261EB75
:1005380041014FF4806404F132045FEA915C3FF4B6
:10054800D8AE4FF003025FEADC0C18BF03325FEA53
:10055800DC0C18BF033202EBDC02C2F1200300FA04
:1005680003FC20FA02F001FA03FE40EA0E0021FA29
:1005780002F11444BDE600BF70B54FF0FF0C4CF417
:10058800E06C1CEA11541DBF1CEA135594EA0C0FC9
:1005980095EA0C0F00F0DEF82C4481EA030621EA04
:1005A8004C5123EA4C5350EA013518BF52EA03353F
:1005B80041F4801143F4801338D0A0FB02CE4FF0F1
:1005C8000005E1FB02E506F00042E0FB03E54FF021
:1005D8000006E1FB03569CF0000F18BF4EF0010E19
:1005E800A4F1FF04B6F5007F64F5407404D25FEA15
:1005F8004E0E6D4146EB060642EAC62141EA5551C8
:100608004FEAC52040EA5E504FEACE2EB4F1FD0C09
:1006180088BFBCF5E06F1ED8BEF1004F08BF5FEA87
:10062800500E50F1000041EB045170BD06F0004639
:1006380046EA010140EA020081EA0301B4EB5C04E6
:10064800C2BFD4EB0C0541EA045170BD41F48011DE
:100658004FF0000E013C00F3AB8014F1360FDEBF03
:10066800002001F0004170BDC4F10004203C35DADF
:100678000C341BDC04F11404C4F1200500FA05F362
:1006880020FA04F001FA05F240EA020001F0004203
:1006980021F0004110EBD37021FA04F642EB060179
:1006A8005EEA430E08BF20EAD37070BDC4F10C04A3
:1006B800C4F1200500FA04F320FA05F001FA04F267
:1006C80040EA020001F0004110EBD37041F1000153
:1006D8005EEA430E08BF20EAD37070BDC4F120055E
:1006E80000FA05F24EEA020E20FA04F301FA05F2C6
:1006F80043EA020321FA04F001F0004121FA04F26E
:1007080020EA020000EBD3705EEA430E08BF20EA3D
:10071800D37070BD94F0000F0FD101F00046400077
:1007280041EB010111F4801F08BF013CF7D041EAF9
:10073800060195F0000F18BF704703F000465200FD
:1007480043EB030313F4801F08BF013DF7D043EACE
:100758000603704794EA0C0F0CEA135518BF95EA84
:100768000C0F0CD050EA410618BF52EA4306D1D10B
:1007780081EA030101F000414FF0000070BD50EA2A
:10078800410606BF1046194652EA430619D094EAB4
:100798000C0F02D150EA013613D195EA0C0F05D19E
:1007A80052EA03361CBF104619460AD181EA0301F2
:1007B80001F0004141F0FE4141F470014FF00000AA
:1007C80070BD41F0FE4141F4780170BD70B54FF045
:1007D800FF0C4CF4E06C1CEA11541DBF1CEA1355C5
:1007E80094EA0C0F95EA0C0F00F0A7F8A4EB0504A7
:1007F80081EA030E52EA03354FEA013100F088809E
:100808004FEA03334FF0805545EA131343EA126366
:100818004FEA022245EA111545EA10654FEA00261B
:100828000EF000419D4208BF964244F1FD0404F5D4
:10083800407402D25B084FEA3202B61A65EB030530
:100848005B084FEA32024FF480104FF4002CB6EBED
:10085800020E75EB030E22BFB61A754640EA0C006D
:100868005B084FEA3202B6EB020E75EB030E22BFAD
:10087800B61A754640EA5C005B084FEA3202B6EBEE
:10088800020E75EB030E22BFB61A754640EA9C00AD
:100898005B084FEA3202B6EB020E75EB030E22BF7D
:1008A800B61A754640EADC0055EA060E18D04FEA3B
:1008B800051545EA16754FEA06164FEAC30343EADB
:1008C80052734FEAC2025FEA1C1CC0D111F4801FA8
:1008D8000BD141EA00014FF000004FF0004CB6E7A1
:1008E80011F4801F04BF01430020B4F1FD0C88BF40
:1008F800BCF5E06F3FF6AFAEB5EB030C04BFB6EB4B
:10090800020C5FEA500C50F1000041EB045170BD3D
:100918000EF0004E4EEA113114EB5C04C2BFD4EB6A
:100928000C0541EA045170BD41F480114FF0000EEE
:10093800013C90E645EA060E8DE60CEA135594EA6A
:100948000C0F08BF95EA0C0F3FF43BAF94EA0C0F6D
:100958000AD150EA01347FF434AF95EA0C0F7FF4E2
:1009680025AF104619462CE795EA0C0F06D152EA36
:1009780003353FF4FDAE1046194622E750EA41061A
:1009880018BF52EA43067FF4C5AE50EA41047FF42B
:100998000DAF52EA43057FF4EBAE12E74FF0FF3C90
:1009A80006E000BF4FF0010C02E000BF4FF0010C61
:1009B8004DF804CD4FEA410C7FEA6C5C4FEA430CDA
:1009C80018BF7FEA6C5C1BD001B050EA410C0CBF29
:1009D80052EA430C91EA030F02BF90EA020F00208B
:1009E800704710F1000F91EA030F58BF994208BFF2
:1009F80090422CBFD8176FEAE37040F001007047AF
:100A08004FEA410C7FEA6C5C02D150EA013C07D105
:100A18004FEA430C7FEA6C5CD6D152EA033CD3D050
:100A28005DF8040B704700BF8446104662468C464A
:100A38001946634600E000BF01B5FFF7B7FF00287D
:100A480048BF10F1000F01BD4DF808EDFFF7F4FFA6
:100A58000CBF012000205DF808FB00BF4DF808ED31
:100A6800FFF7EAFF34BF012000205DF808FB00BF54
:100A78004DF808EDFFF7E0FF94BF012000205DF876
:100A880008FB00BF4DF808EDFFF7CEFF94BF01202B
:100A980000205DF808FB00BF4DF808EDFFF7C4FF24
:100AA80034BF012000205DF808FB00BF4FEA410C6D
:100AB8007FEA6C5C02D150EA013C0AD14FEA430C50
:100AC8007FEA6C5C02D152EA033C02D14FF000008D
:100AD80070474FF0010070474FEA410212F50012CB
:100AE80015D211D56FF47873B3EB625212D94FEA6D
:100AF800C12343F0004343EA505311F0004F23FA57
:100B080002F018BF404270474FF00000704750EAAB
:100B1800013005D111F0004008BF6FF00040704768
:100B28004FF00000704700BF4A0011D212F50012C2
:100B380011D20DD56FF47873B3EB62520ED44FEA2D
:100B4800C12343F0004343EA505323FA02F07047AD
:100B58004FF00000704750EA013002D14FF0FF30EB
:100B680070474FF0000070474FEA4102B2F1E0438E
:100B780024BFB3F5001CDCF1FE5C0DD901F0004C7C
:100B88004FEAC0024CEA5070B2F1004F40EB8300CC
:100B980008BF20F00100704711F0804F21D113F1F8
:100BA8003872BCBF01F00040704741F480114FEA31
:100BB8005252C2F11802C2F1200C10FA0CF320FABA
:100BC80002F018BF40F001004FEAC1234FEAD323D7
:100BD80003FA0CFC40EA0C0023FA02F34FEA430341
:100BE800CCE77FEA625307D150EA01331EBF4FF0CA
:100BF800FE4040F44000704701F0004040F0FE40E5
:100C080040F40000704700BF53B94AB9002908BF33
:100C180000281CBF4FF0FF314FF0FF3001F0F6B84D
:100C2800ADF1080C6DE904CE00F006F8DDF804E03B
:100C3800DDE9022304B070472DE9F047089D0C4612
:100C4800002B4ED194468C458646B2FA82F262D980
:100C58004AB1C2F12003914020FA03F30CFA02FCD6
:100C6800194300FA02FE4FEA1C471FFA8CF6B1FB43
:100C7800F7F44FEA1E4307FB141143EA014304FB50
:100C880006F199420AD91CEB030304F1FF3080F006
:100C98001281994240F20F81023C6344591A1FFAAB
:100CA8008EF3B1FBF7F007FB101143EA014300FB99
:100CB80006F69E420AD91CEB030300F1FF3180F0CF
:100CC800FC809E4240F2F980634402389B1B40EA54
:100CD800044000211DB1D3400022C5E90032BDE81F
:100CE800F0878B4205D90DB1C5E9000100210846FE
:100CF800F5E7B3FA83F1002946D1A34202D3904223
:100D0800C0F0F080861A64EB03030120002DE6D0C2
:100D1800C5E90063E3E7002A40F09080A1EB0C04EA
:100D28004FEA1C481FFA8CF70121B4FBF8F64FEA8A
:100D38001E4308FB164443EA044307FB06F09842A7
:100D480008D91CEB030306F1FF3402D2984200F2E3
:100D5800CD8026461C1A1FFA8EF3B4FBF8F008FB68
:100D6800104443EA044300FB07F79F4208D91CEBF1
:100D7800030300F1FF3402D29F4200F2B080204604
:100D8800DB1B40EA0640A5E7C1F120068B4022FAAA
:100D980006F71F4320FA06FC04FA01F343EA0C03A2
:100DA800F44000FA01F8380C4FEA1349B4FBF0FE9E
:100DB8001FFA87FC00FB1E4449EA04440EFB0CF9A9
:100DC800A14502FA01F20AD93C190EF1FF3A80F066
:100DD8008480A14540F28180AEF1020E3C44A4EB30
:100DE80009041FFA83F9B4FBF0F300FB134449EA42
:100DF800044403FB0CFCA44507D93C1903F1FF305C
:100E080067D2A44565D9023B3C4443EA0E40A0FBA7
:100E18000293A4EB0C049C42CE469C4651D34ED080
:100E280055B1B8EB0E0364EB0C0404FA06F6CB409C
:100E38001E43CC40C5E90064002150E7C2F12003FD
:100E480020FA03F10CFA02FC24FA03F394400C4351
:100E58004FEA1C4800FA02FE1FFA8CF7B3FBF8F0C1
:100E680008FB1031230C43EA014300FB07F19942C8
:100E780008D91CEB030300F1FF362CD299422AD97A
:100E8800023863445B1AA4B2B3FBF8F108FB1133D0
:100E980044EA034401FB07F3A34208D91CEB04040A
:100EA80001F1FF3613D2A34211D902396444E41A7E
:100EB80041EA004139E70446F0E6084606E7C84536
:100EC800AED2B9EB020E63EB070C0138A8E7314646
:100ED800EDE7034699E73046D4E7D6467FE7634413
:100EE80002384DE70646234608460FE7023E6344AC
:100EF80030E700BF03685A004CBF43F0004323F0BB
:100F080000431844704700BF2DE9F84349B34F1E0A
:100F1800044615463E464FF0000909EB060101EB71
:100F2800D171491004EBC1084046FFF7E3FF8F4237
:100F380003464FEAC1000FD00830AB42204407D81F
:100F4800FFF7D8FF0138A84208D201F10109E4E708
:100F5800894506D04E1EE0E7AB42F9D84046BDE8C9
:100F6800F8834FF000084046BDE8F883012807D011
:100F7800022807D0044B00280CBF184600207047F1
:100F880002487047024870473D160008411600089D
:100F98004516000830B5214B83B004468D1E1BB39F
:100FA80001A92846AFF3008088B301992A46FFF7C4
:100FB800ABFF014658B3FFF79DFF4B68A064012BB8
:100FC80028D0002B01F104001FDBFFF793FF00235B
:100FD80023650368E064002B0DDBFFF78BFF0346F6
:100FE8000020236103B030BD0D4B0E49C91AC9104A
:100FF80018460191DAE7C3F30360FFF7B7FF03462A
:1010080028B10020236103B030BD0123E0E70023AD
:101018000920E6E700230520E3E700BF0000000001
:10102800F4AD00086CB000080368DA0710B5044690
:1010380006D49B0700F1480009D500F069FC236835
:10104800590709D51A070ED5DB0613D510BD00F0D0
:1010580057FC23685907F5D404F1D00000F060FC70
:1010680023681A07F0D404F5A87000F061FC23681F
:10107800DB06EBD404F5E870BDE8104000F09CBC3A
:10108800092070470346006800B11844704700BF44
:10109800704700BF70B504460E46316C2046FFF716
:1010A80079FF054688B9326C626123693246214668
:1010B800012098470828F0D0072806D12846316C27
:1010C800FFF7E6FF301D00F00FFC09F04FFC00BFF2
:1010D8002DE9F0470D1DD0F80C80D0F81890074680
:1010E80014460FCDADF5727D0DF10C0CACE80F0078
:1010F8000FCDACE80F000FCDACE80F0095E80F005E
:1011080002AE4FF0000E8CE80F00C6F800E020E0B9
:10111800336C7B614FF4F07231467AA809F082FC97
:101128003B697AAA394650469847889B736421469A
:10113800CDE9006905463B463A460120C0470446CA
:1011480018BB4FF4F0727AA9304609F06BFC082DF1
:1011580019D1316C3846FFF71DFF09345FFA84FA5C
:1011680005460028D4D0B36B73643A46CDE90069CC
:101178003B464AF010010120C04730B928460DF51A
:10118800727DBDE8F087072D05D0092528460DF5A5
:10119800727DBDE8F0872046316CFFF779FF03A820
:1011A80000F0A2FB406C7047F0B5CB6B0B6401F10B
:1011B800040C0E460546BCE80F00F9B001AC0FC49C
:1011C800BCE80F000FC4BCE80F000FC49CE80F0078
:1011D8004FF0FF3784E80F00009706E02B696A4656
:1011E800294698470828044608D110992846FFF749
:1011F800D1FE0028F2D0092079B0F0BD6846FFF78B
:1012080013FF062CF7D131462846FFF743FF00BFEE
:10121800C160D96B826119640022194658E700BF82
:1012280070B5C66843690B64AEB903690A460446DB
:101238000D46014602209847072805D008280FD1F7
:1012480029462046FFF726FF3046296CFFF720FF86
:10125800281D00F049FB0122FFF73AFF09F086FB41
:1012680009F084FBC2681AB1CA6B0A6400222FE72E
:101278009AE700BF704700BF836801460BB10120A1
:1012880018477047012910D009D883B90F2A0ED8FA
:1012980000EB820218465368009A136070470339BE
:1012A80001298CBF022001207047084670470220A0
:1012B800704700BF00B585B00A46002303A9009116
:1012C8001946FFF7DFFF039805B05DF804FB00BF80
:1012D800012910D009D883B90F2A0ED8009900EB3C
:1012E80082020968516018467047033901298CBF8A
:1012F800022001207047084670470220704700BF4F
:1013080010B584B0002303AC039200940A46194632
:10131800FFF7DEFF04B010BD70B5D36B136402F1A4
:10132800040C05460C46BCE80F00ADF50E7D0DF12A
:101338005C0EAEE80F00BCE80F00AEE80F00BCE89A
:101348000F00AEE80F009CE80F004FF0FF368EE864
:101358000F00169610E0FFF7D3FF214616A8A847FE
:10136800034616AA6946082083B9049B98470528AE
:1013780006460CD0092809D026996846FFF70AFEC8
:1013880003466A460C2116A8002BE4D0092616A8A5
:10139800FFF74AFE30460DF50E7D70BD2DE9F04F82
:1013A8009346CA6C89B00D4652F8041B069200F0A9
:1013B800030C002B79D00C0C8DF81D400904E4B205
:1013C800059102EB840202212F6D8DF81C10BCF1EF
:1013D800020F08BFAA6B17F001070CD005A95846E1
:1013E80000F084FB18B9082009B0BDE8F08F092087
:1013F80009B0BDE8F08F1668002EEFD000F00801A4
:101408000191B246029764469946B9F1020F48D055
:10141800B2F800A0568802F10408AA6C26F001036D
:101428000F2158469F18FFF745FF874237D82AF003
:1014380001023A44824294BF00220122730003F061
:1014480002030AF0010A43EA0A03012B47D0022BE0
:1014580031D0002BCBD114B1002A40F0C98008F15B
:101468000402D2F800A0BAF1000FCED105A958465F
:10147800029F00F03BFB0028B9D1002FB3D00F2109
:101488005846FFF717FF0E2102465846FFF738FF68
:10149800674A0F215846FFF733FF0720A8E70022C5
:1014A800CCE7566802F10808B7E7090205918DF8FC
:1014B8001D30032188E7D8F8006026F00043002C8F
:1014C80044D122B1019A002A5AD0002B58D0002EBC
:1014D80001DA08F10408013308EB8302C1E7ECB92B
:1014E800CAB1D8F80430D8F80020991C4FEAD27253
:1014F8003FF47DAF05F158010133049100F08B8072
:1015080008F10400FFF7BEFD04AB0146284608F0C9
:101518003DFD002857D108F10802A2E70D215846E1
:10152800FFF7C8FE2B6A8342F5D1AB6A9845F2D122
:101538004046FFF7DFFC0F2102465846FFF7E0FE62
:101548002A4600215846FFF7DBFEA6E70D2158463C
:101558000393FFF7AFFE2A6A039B8242B7D1AA6AB8
:101568009045B4D100270422C5E90B724244AB620E
:101578006A63D8F80020BA4255DB01220292AAE732
:10158800039408F1040A002605F158071C460DE0EB
:1015980050460497FFF776FD0022014604AB284623
:1015A80001360AF1040A08F0F1FCE0B9A642EFD1CD
:1015B8000D215846FFF77EFE049BC5F82880C5E933
:1015C8000803062014E704460D215846FFF772FE6B
:1015D800049E2862022C04BFEE6205F12C06C5E9C0
:1015E8000968062004E72346D8F80060039C6EE7E4
:1015F8004046FFF77FFC08F104020446AA63284628
:1016080008F022FD00283FF4F2AE22460F2158468A
:10161800FFF776FE41E70C4658460D21FFF74AFED4
:1016280026462862DBE7581C08EB800081E700BFEC
:1016380081A800080023B1E60123AFE60223ADE646
:101648002DE9F0430646C3B015461C46042900F2AE
:10165800D180DFE801F0AC51CF2A0300002C40F024
:10166800C980102A00F2C6800368DC0600F1E78012
:1016780020AF384600F0AAF9B46B394600234FF082
:10168800010C0CFA03F22A42204603F1010303D0AD
:1016980050F8042B0A600446042B01F10401F0D130
:1016A800B463384600F088F999E0032C40F0A28032
:1016B80094B204EB1243102B4FEA124500F29A80C1
:1016C80003681F0700F1C38020AF384600F052F9C5
:1016D800B26B07EBC50154B10B46D01A01EBC4013C
:1016E800E4001D5843F8045B8B42FAD12244B263EC
:1016F800384600F01DF972E0012C4FEA124895B205
:1017080071D0052C76D108EB0509B9F1200F71D8F5
:10171800B8F10F0F72D8B9F1100F036800F29F806B
:10172800D90708D523F00103304643F0020340F8F7
:10173800483B00F0F1F820AF384600F0EDF8B36B05
:10174800002D00F0B9806D006A1E07EBC801002566
:101758000132043903EB820253F8040B41F8040FF9
:101768009342F9D1002D00F0A1804146102938BFDD
:1017780010216B0010396F46013B07EBC1010133A3
:10178800043902EB830352F8040B41F8040F9A4220
:10179800F9D1012C00F08880B8F10F0FB26302D89C
:1017A80020A800F0B5F8384600F0BAF817E00CBBEE
:1017B800806B23461FFA82FC0124371D04FA03F1CB
:1017C80011EA0C0F024604D052F8041B47F8231004
:1017D80010460133102BF1D1AC0400D4B0630020C3
:1017E80043B0BDE8F08308EB0503102B02D8B8F12D
:1017F800100F14D1022043B0BDE8F083002DEED0C5
:1018080003685A075CD46F46384600F08DF8B26B0F
:101818006B00A8F11001013B07EBC101AFE70368BA
:10182800DA0759D420AF384600F06EF8B36B002DB4
:1018380089D10433B363384600F062F8CFE723F068
:101848001003036000F5E87000F0C0F810E723F01B
:101858000803036000F5A87000F08CF834E7D90796
:1018680008D523F0010343F0020340F8483B00F099
:1018780053F83368580706D5304623F0040340F878
:10188800D03B00F051F820AF384600F045F86846E4
:1018980000F04AF8C8F110025200B36BA9F1100524
:1018A800013A07EBC80153E720AFC2E7012CC0D0CB
:1018B800B8F10F0FB36392D8384600F029F88EE7D5
:1018C80023F0040340F8D03B6F4600F02DF838466B
:1018D80000F02AF8B26B9BE7304623F0030340F888
:1018E800483B00F011F89DE700F1340191E8380019
:1018F8009C46A6464CF8045D90E8FF0FE54600BDFF
:1019080090EC210B704700BF80EC210B704700BFA3
:1019180090EC200B704700BF80EC200B704700BF95
:10192800D0EC200B704700BFC0EC200B704700BF05
:10193800F0EC0201F0EC0211F0EC0221F0EC0231C3
:10194800F0EC0241F0EC0251F0EC0261F0EC0271B3
:10195800F0EC0281F0EC0291F0EC02A1F0EC02B1A3
:10196800F0EC02C1F0EC02D1F0EC02E1F0EC02F193
:10197800704700BFE0EC0201E0EC0211E0EC02214C
:10198800E0EC0231E0EC0241E0EC0251E0EC0261F3
:10199800E0EC0271E0EC0281E0EC0291E0EC02A1E3
:1019A800E0EC02B1E0EC02C1E0EC02D1E0EC02E1D3
:1019B800E0EC02F1704700BFB0FC0181B0FC01917E
:1019C800B0FC01A1B0FC01B1704700BFA0FC0181CF
:1019D800A0FC0191A0FC01A1A0FC01B1704700BFCF
:1019E800EC4600B52DE900502DE9FF1F4FF000032C
:1019F8002DE90C0001A9FFF7D7FBDDF840E012B094
:101A0800704700BFEC4600B52DE900502DE9FF1FD7
:101A18004FF000032DE90C0001A9FFF701FCDDF8E8
:101A280040E012B0704700BFEC4600B52DE9005009
:101A38002DE9FF1F4FF000032DE90C0001A9FFF766
:101A480011FCDDF840E012B0704700BFEC4600B56D
:101A58002DE900502DE9FF1F4FF000032DE90C0080
:101A680001ABFFF7D5FBDDF840E012B0704700BFCF
:101A7800EC4600B52DE900502DE9FF1F4FF000039B
:101A88002DE90C0001AAFFF747FCDDF840E012B091
:101A9800704700BF027A03467AB9427AA2B1416818
:101AA800013A10B44272086803220C1D1A7202022D
:101AB8005C60000E10BC1A6070470068013A1A7228
:101AC80002021A60000E7047B020704700B585B05A
:101AD800002303AA009219460C22FFF7D3FB0398B0
:101AE80005B05DF804FB00BFF0E700BF2DE9F04347
:101AF800064685B00D464FF000082846FFF7CAFF96
:101B0800B028044600F0DA80070646D500F0F00356
:101B1800802B5ED0B02B73D01BD8902B00F09B800D
:101B2800A02B12D1C34303F007034FF47F621A417D
:101B3800010702F47F6201D542F48042002319466E
:101B48003046FFF77DFD0028D7D0092005B0BDE855
:101B5800F083C02B6DD1C62800F09380C72800F011
:101B6800B28000F0F803C02B00F0D280C82800F043
:101B7800DD80C928E9D12846FFF78CFF020300F071
:101B88000F0002F470220130024301210523304680
:101B9800FFF756FD0028B0D0D7E78300DBB21F1D42
:101BA8000DF10C0900231946CDF800900D2230469E
:101BB800FFF768FB039BCDF8009060064CBFDF1B66
:101BC800FF1800230D22194630460397FFF780FBC4
:101BD80093E72846FFF75EFF24022043B0F5004F45
:101BE800B3D004010023A2B219463046FFF728FDFE
:101BF8000028AAD114F4004F18BF4FF001087CE761
:101C0800B12851D0B22800F0AD80B3286DD000F0D3
:101C1800FC03B42B99D000F007020132012342F4EF
:101C2800002219463046FFF70BFD00283FF465AF48
:101C38008BE700F0F803D02B87D100F007020132C0
:101C4800052342F4002201213046FFF7F9FC002861
:101C58003FF453AF79E700F00D030D2B3FF475AF58
:101C680003AF002300F00F02194600973046FFF734
:101C780009FB002300970D2219463046FFF728FB81
:101C88003BE72846FFF706FF020300F00F0001308C
:101C980002F470220323024319463046FFF7D0FCB2
:101CA80000283FF42AAF50E72846FFF7F3FE431E0B
:101CB800DBB20E2B02467FF641AF46E7B8F1000FC4
:101CC80040D0002042E72846FFF7E4FE431EDBB27F
:101CD8000E2B02463FF639AF002304213046FFF7AA
:101CE800AFFC00283FF409AF2FE72846FFF7D2FEE4
:101CF800020300F00F00013002F4702201230243B6
:101D080019463046FFF79CFC00283FF4F6AE1CE766
:101D180000F00F020132032342F420221946304614
:101D2800FFF78EFC00283FF4E8AE0EE72846FFF7E1
:101D3800B1FE00F0F00200F00F031032013343EA65
:101D4800023222E703AC434641460E220094304655
:101D5800FFF798FA009443460F2241463046FFF7B2
:101D6800B7FAAEE700230DF10C090D221946CDF89C
:101D780000903046FFF786FA2846FFF78BFE0206EA
:101D8800039C4FF002070BD500F07F00B8400444D5
:101D980028460394FFF77EFE030607F10707F3D4EE
:101DA80000FA07F204F50174224400230392CDF8E7
:101DB80000900D2219463046FFF78AFA9DE600BFCB
:101DC80010B5C26C536884B04FF0030C08321C0283
:101DD80008461B0E01A9019402928DF80CC08DF8DB
:101DE8000D30FFF783FE04B010BD00BF08B5FFF744
:101DF8007BFE806C08BD00BF08B5FFF775FEC06CA0
:101E0800C379023300EB830008BD00BF704700BFF1
:101E180010F8012B11F8013B012A28BF9A42F7D08C
:101E2800D01A704708B5034B834200D008BD04F0B0
:101E380039F8FBE7D401002072B6FEE700B595B08B
:101E48003422002107A807F007FC0023029303931C
:101E58000493059306930093214A116C41F0805135
:101E68001164126C02F080520092009A01931D4A8C
:101E7800116841F440411160126802F44042019235
:101E8800019A0222079201210A9110210B910D92C9
:101E98000E9308230F93B423109311921292139266
:101EA80007A801F099F9A0B901F016FF98B90F2316
:101EB800029302230393002304934FF4A053059342
:101EC8000693052102A801F01DF830B915B05DF898
:101ED80004FBFFF7B1FFFFF7AFFFFFF7ADFF00BF50
:101EE800003802400070004008B501F0D5FFFFF748
:101EF800A5FF00F025F802F021FC00F079F800F0C9
:101F08007DFA00F0D7FA00F029FB00F07BFB00F027
:101F180029F900F0B5FB02F0B9FC02F0D1FC02F09F
:101F2800E9FC02F07FFC02F097FC04F003F8034898
:101F380002F08AF804F006F8FEE700BFD40100209A
:101F4800F0B58BB00024059406940794089409947E
:101F58000194244B1A6B42F004021A631A6B02F0C4
:101F680004020192019A02941A6B42F001021A6368
:101F78001A6B02F001020292029A03941A6B42F061
:101F880002021A631A6B02F002020392039A049483
:101F98001A6B42F008021A631B6B03F008030493E0
:101FA800049B114F22460321384601F027FC0F4DB0
:101FB80022462021284601F021FC0323059301260F
:101FC80006960794089405A9384601F027FB2023B4
:101FD800059306960794089405A9284601F01EFB68
:101FE8000BB0F0BD0038024000080240000002407B
:101FF80000B585B000230093019302930393214811
:10200800214A026043604FF08072826001220261BF
:10201800027680F82030C3621C498162C3600323C2
:10202800C36180F83020426100F0AEFCF0B90423AF
:1020380000930123019302936946124800F08CFE35
:10204800B8B90E2300930223019369460D4800F0A6
:1020580083FE88B90F230093032301936946094837
:1020680000F07AFE58B905B05DF804FBFFF7E4FE0E
:10207800DDE7FFF7E1FEE4E7FFF7DEFEEAE7FFF75B
:10208800DBFEF0E7FC000020002001400100000F0B
:1020980070B588B0002303930493059306930793C0
:1020A800026803F1804303F590339A4201D008B0E7
:1020B80070BD04460025009503F58C335A6C42F434
:1020C80080725A645A6C02F480720092009A0195E8
:1020D8001A6B42F001021A631A6B02F001020192B4
:1020E800019A02951A6B42F004021A631B6B03F003
:1020F80004030293029B102303930326049603A967
:10210800144801F08BFA302303930496059503A92C
:10211800114801F083FA1148114B0360456085604E
:10212800C5604FF4806303614FF4006343614FF46B
:10213800005383614FF48073C3610562456201F007
:10214800E3FB18B9054BA3639C63B0E7FFF774FE84
:10215800F8E700BF00000240000802409C00002091
:102168001064024008B50948094B036042F227335E
:102178004360002383600922C2600361836102F027
:10218800C7F800B908BDFFF757FEFBE7D4010020E8
:102198000044014084B00368B3F1804F15D01F4A52
:1021A800934220D01E4A93422AD01E4A934218D105
:1021B800002303931C4B1A6C42F040021A641B6CF8
:1021C80003F040030393039B0BE000230093164B9B
:1021D8001A6C42F001021A641B6C03F001030093AD
:1021E800009B04B07047002301930F4B1A6C42F018
:1021F80002021A641B6C03F002030193019BF0E7CF
:1022080000230293084B1A6C42F004021A641B6CF8
:1022180003F004030293029BE3E700BF00040040BD
:1022280000080040001800400038024000B583B0A4
:102238000368154A934205D0144A934216D003B056
:102248005DF804FB00210091114B5A6C42F40032F6
:102258005A645B6C03F400330093009B0A46192010
:1022680001F0CCFD192001F0D9FDE8E70023019326
:10227800074B1A6C42F080021A641B6C03F080034F
:102288000193019BDBE700BF00440140001C0040B4
:102298000038024030B58DB00023079308930993A6
:1022A8000A930B930368B3F1804F0DD04B4A9342C6
:1022B80022D04B4A93424AD04A4A93425ED04A4A75
:1022C800934273D00DB030BD00230193474B1A6B76
:1022D80042F002021A631B6B03F002030193019B95
:1022E80040F20C5307930223089301230B9307A989
:1022F8003F4801F093F9E5E7002502953B4B1A6B3F
:1023080042F004021A631A6B02F004020292029A63
:1023180003951A6B42F002021A631B6B03F0020367
:102328000393039B4FF4A0730793022408940B9420
:1023380007A9304801F072F92023079308940995FA
:102348000A950B9407A92A4801F068F9BAE700230F
:102358000493264B1A6B42F002021A631B6B03F0BC
:1023680002030493049B4FF43073079302230893EA
:102378000B9307A91E4801F051F9A3E70023059321
:102388001A4B1A6B42F002021A631B6B03F002032A
:102398000593059B4FF440430793022308930923B1
:1023A8000B9307A9124801F039F98BE7002306932C
:1023B8000E4B1A6B42F001021A631B6B03F0010308
:1023C8000693069B402307930223089309230B9344
:1023D80007A9094801F022F974E700BF000400408A
:1023E8000008004000180040001C0040003802406F
:1023F80000040240000802400000024000B58BB013
:10240800002308930993019302930393049305937C
:102418000693079326484FF08042026001224260EB
:10242800836040F28332C2600361836101F09CFFE4
:1024380058BB00230893099308A91D4802F0F8F82F
:1024480030BB60230193002202920392059201A9F6
:10245800174801F0EDFFF0B904220DEB0201144812
:1024680001F0E6FFD0B9082201A9114801F0E0FF08
:10247800B8B90C2201A90E4801F0DAFFA0B90C483E
:10248800FFF708FF0BB05DF804FBFFF7D5FCD0E7BA
:10249800FFF7D2FCD5E7FFF7CFFCDDE7FFF7CCFC71
:1024A800E1E7FFF7C9FCE4E7FFF7C6FCE7E700BF91
:1024B800AC02002000B58BB0002308930993019368
:1024C8000293039304930593069307932148224AA2
:1024D800026001224260836040F21F32C2600361E1
:1024E800836101F041FF28BB00230893099308A9E1
:1024F800184802F09DF800BB602301930022029265
:102508000392059201A9134801F092FFC0B9042271
:102518000DEB02010F4801F08BFFA0B9082201A9B9
:102528000C4801F085FF88B90A48FFF7B3FE0BB0E5
:102538005DF804FBFFF780FCD6E7FFF77DFCDBE7DF
:10254800FFF77AFCE3E7FFF777FCE7E7FFF774FCB0
:10255800EAE700BF640200200004004000B58BB029
:10256800002308930993019302930393049305931B
:10257800069307932148224A026001224260836041
:1025880040F21F32C2600361836101F0EDFE28BB97
:1025980000230893099308A9184802F049F800BBDA
:1025A80060230193002202920392059201A9134825
:1025B80001F03EFFC0B904220DEB02010F4801F003
:1025C80037FFA0B90C2201A90C4801F031FF88B9E6
:1025D8000A48FFF75FFE0BB05DF804FBFFF72CFC21
:1025E800D6E7FFF729FCDBE7FFF726FCE3E7FFF771
:1025F80023FCE7E7FFF720FCEAE700BF1C02002006
:102608000008004000B589B00023019302930393AA
:1026180004930593069307931748184A026001220A
:102628004260836040F28332C2600361836101F0DB
:102638009BFEB8B96023019300220292039205928F
:1026480001A90D4801F0F4FE78B904220DEB02014E
:10265800094801F0EDFE58B90748FFF71BFE09B01D
:102668005DF804FBFFF7E8FBE4E7FFF7E5FBECE7C1
:10267800FFF7E2FBF0E700BF8C01002000180040E4
:1026880000B589B000230193029303930493059343
:10269800069307931548164A0260436083604FF615
:1026A800FF72C2600361836101F032FEA0B90F4876
:1026B80001F05AFE98B96023019300220292039216
:1026C800059201A9094801F0B3FE58B90748FFF778
:1026D800E1FD09B05DF804FBFFF7AEFBE7E7FFF7A4
:1026E800ABFBE8E7FFF7A8FBF0E700BF44010020D9
:1026F800001C0040FEE7FEE7FEE7FEE7FEE7704746
:102708007047704708B501F0E1FB08BD08B50248FD
:1027180001F0F2F908BD00BF9C05002008B5024889
:1027280001F0EAF908BD00BF5C03002008B50248C3
:1027380001F0E2F908BD00BF5C06002008B50248B8
:1027480001F0DAF908BD00BFFC02002008B5024814
:1027580001F0D2F908BD00BFFC05002008B5024809
:1027680001F0CAF908BD00BF1C04002008B50248E2
:1027780001F0C2F908BD00BFBC03002008B502483B
:1027880001F0AAFC08BD00BFD401002008B502482A
:1027980002F036FE08BD00BF4C07002008B502480D
:1027A80002F02EFE08BD00BF0407002008B502484D
:1027B80002F026FE08BD00BFBC06002008B502488E
:1027C80001F09AF908BD00BF3C05002008B5024891
:1027D80002F016FE08BD00BFDC07002008B502485D
:1027E80002F00EFE08BD00BF9407002008B502489D
:1027F80001F082F908BD00BF9C00002008B502481E
:1028080001F07AF908BD00BFDC04002008B50248D1
:1028180001F072F908BD00BF7C04002082B00021DD
:1028280000910B4B5A6C42F480425A645A6C02F481
:1028380080420092009A01911A6C42F080521A6408
:102848001B6C03F080530193019B02B0704700BFDB
:10285800003802404A4B5A6822F440325A605A689B
:1028680041680A435A600268536823F480735360CE
:1028780002685368016943EA012353600268536898
:1028880023F0407353600268536881680B435360B8
:102898000268936823F40063936002689368C168D0
:1028A8000B439360826A374B9A4257D00268936809
:1028B80023F07063936002689368816A0B439360A6
:1028C8000268936823F04053936002689368C16A72
:1028D8000B4393600268936823F0020393600268D5
:1028E8009368017E43EA4103936090F82030002BFF
:1028F8003FD00268536843F400635360026853682A
:1029080023F46043536001684B68426A013A43EA22
:1029180042334B600268D36A23F47003D3620168C0
:10292800CB6AC269013A43EA0253CB6202689368F0
:1029380023F4007393600268936890F8301043EAB8
:10294800412393600268936823F48063936002686C
:102958009368416943EA81239360704702689368EA
:1029680023F0706393600268936823F04053936088
:10297800B0E70268536823F400635360CAE700BFF6
:10298800002301400100000F38B310B50446036C62
:1029980043B1236C13F0100F0BD00120002384F8EF
:1029A8003C3010BDFFF774FB0023636484F83C30AF
:1029B800EFE7236C23F4885323F0020343F0020368
:1029C80023642046FFF746FF00206064236C23F051
:1029D800030343F001032364E0E70120704700008C
:1029E80082B00023019390F83C30012B00F08980DD
:1029F800012380F83C3003689A6812F0010F13D164
:102A08009A6842F001029A60414B1B68414AA2FB56
:102A180003239B0C03EB4303019302E0019B013B5F
:102A28000193019B002BF9D10268936813F0010F01
:102A38005CD0036C23F4E06323F0010343F4807358
:102A48000364536813F4806F05D0036C23F4405378
:102A580043F480530364036C13F4805F1BD0436C0E
:102A680023F006034364002380F83C306FF0220310
:102A78001360294B5B6813F01F0F27D10368274A9F
:102A8800934211D002F58072934207D0244A9342B0
:102A980014D0002033E000234364E4E702F5007219
:102AA800526812F01F0FF1D19A6812F0405F2AD1D4
:102AB8009A6842F080429A60002020E002F5807215
:102AC800526812F0100FEFD0002018E00368134A84
:102AD800934201D0002012E09A6812F0405F14D1AE
:102AE8009A6842F080429A60002008E0036C43F044
:102AF80010030364436C43F001034364002002B0F5
:102B080070470220FBE70020F9E70020F7E700BF45
:102B18000C00002083DE1B430023014000200140FD
:102B28000022014010B582B013460022019290F8AD
:102B38003C20012A00F0AE800446012280F83C20A7
:102B48000268906810F0010F13D1906840F00100FE
:102B58009060534A1068534AA2FB0020800C00EB97
:102B68004000019002E00198013801900198002886
:102B7800F9D12268906810F4807F03D0906820F41F
:102B8800807090602268906810F0010F77D0206CF8
:102B980020F4E06020F0010040F480702064526866
:102BA80012F4806F05D0226C22F4405242F4805215
:102BB8002264226C12F4805F36D0626C22F0060226
:102BC8006264002284F83C20A26B3748D063A26B71
:102BD80036481064A26B3648D06422686FF0220031
:102BE80010602068426842F0806242602068826813
:102BF80042F48072826020680A4600F14C01A06BA2
:102C080000F0E8FE2B4B5B6813F01F0F27D12368F9
:102C1800294A934211D002F58072934207D0274A7D
:102C2800934214D0002033E000226264C9E702F521
:102C38000072526812F01F0FF1D19A6812F0405FCB
:102C48002AD19A6842F080429A60002020E002F57A
:102C58008072526812F0100FEFD0002018E023683D
:102C6800154A934201D0002012E09A6812F0405FA2
:102C780014D19A6842F080429A60002008E0236CE0
:102C880043F010032364636C43F001036364002082
:102C980002B010BD0220FBE70020F9E70020F7E7AB
:102CA8000C00002083DE1B43EF2C0008CD2C00080D
:102CB800D92C0008002301400020014000220140D7
:102CC8007047704708B5806BFFF7FBFF08BD70477A
:102CD80008B5806B40230364436C43F004034364EA
:102CE800FFF7F5FF08BD08B50346806B026C12F0CC
:102CF800500F25D1036C43F40073036403689A688A
:102D080012F0405F19D1027EBAB9DA6A12F4700F74
:102D180003D09A6812F4806F0FD15A6822F020020B
:102D28005A60036C23F480730364036C13F4805FAC
:102D380003D1036C43F001030364FFF7C1FF08BD2F
:102D4800026C12F0100F04D1826BD26C18469047B7
:102D5800F5E7FFF7BCFFF2E730B482B0002201923A
:102D680090F83C20012A00F0C0800346012280F838
:102D78003C200A68092A40D90468E06892B202EB4C
:102D880042021E3A4FF0070C0CFA02F220EA020245
:102D9800E2601C68E0680A8802EB42021E3A8D680D
:102DA80005FA02F20243E2604A68062A3CD81C6827
:102DB800606B02EB8202053A4FF01F0C0CFA02F22C
:102DC80020EA020262631C68606B4A6802EB8202B6
:102DD800053AB1F800C00CFA02F2024362631868BF
:102DE800434A904250D01868414A904259D0002036
:102DF80083F83C0002B030BC70470468206992B286
:102E080002EB42024FF0070C0CFA02F220EA02022F
:102E180022611C6820690A8802EB42028D6805FA63
:102E280002F202432261BFE70C2A16D81D68286BFC
:102E380002EB8202233A1F2404FA02F220EA020279
:102E48002A631D68286B4A6802EB8202233A0C88C1
:102E580004FA02F202432A63C1E71D68E86A02EB3A
:102E68008202413A1F2404FA02F220EA0202EA62CC
:102E78001D68E86A4A6802EB8202413A0C8804FA43
:102E880002F20243EA62AAE70A68122AABD1194A97
:102E9800506820F400005060506840F48000506092
:102EA800A1E70A681448824201D0112A9FD1114A29
:102EB800506820F480005060506840F40000506072
:102EC80009680D4A914292D10C4A12680C49A1FB3B
:102ED8000212920C02EB820252000192019A002A1D
:102EE80085D0019A013A0192F8E7022082E700BFF3
:102EF8000020014000230140120000100C000020B7
:102F080083DE1B43002800F09B8070B50D46044605
:102F18004F4B1B6803F00F038B4208D2CBB24C4ACD
:102F28001370136803F00F038B4240F08B80236803
:102F380013F0020F17D013F0040F04D0454A93681A
:102F480043F4E0539360236813F0080F04D0414A18
:102F5800936843F4604393603E4A936823F0F00318
:102F6800A1680B439360236813F0010F32D06368A4
:102F7800012B21D09A1E012A25D9364A126812F04F
:102F8800020F61D033498A6822F0030213438B6031
:102F980000F0A8FF06462F4B9B6803F00C036268FD
:102FA800B3EB820F16D000F09DFF801B41F28833EF
:102FB8009842F0D9032042E0264A126812F4003FF2
:102FC800E0D101203BE0234A126812F0007FD9D1FA
:102FD800012034E01E4B1B6803F00F03AB4207D9F6
:102FE800EAB21B4B1A701B6803F00F03AB422DD1DA
:102FF800236813F0040F06D0164A936823F4E053AD
:10300800E1680B439360236813F0080F07D0114A57
:10301800936823F46043216943EAC103936000F095
:1030280047F80C4B9B68C3F303130B4AD35CD84097
:103038000A4B18600A4B186800F008FF002070BDA2
:10304800012070470120FAE70120F8E70120F6E7A0
:10305800003C02400038024070AA00080C00002022
:1030680008000020014B1868704700BF0C000020C2
:1030780008B5FFF7F7FF044B9B68C3F38223034AA5
:10308800D35CD84008BD00BF0038024068AA0008D9
:1030980008B5FFF7E7FF044B9B68C3F34233034AC5
:1030A800D35CD84008BD00BF0038024068AA0008B9
:1030B80008B5464B9B6803F00C03082B07D00C2B74
:1030C80045D0042B01D0424808BD4248FCE73F4B9D
:1030D8005A6802F03F025B6813F4800F12D03B4B32
:1030E8005968C1F388113B480023A1FB0001FDF793
:1030F8008BFD364B5B68C3F3014301335B00B0FBC8
:10310800F3F0E1E7314B5868C0F388104FEA401CF0
:10311800BCEB000C6EEB0E0E4FEA8E1343EA9C6379
:103128004FEA8C11B1EB0C0163EB0E03DB0043EAB1
:103138005173C90011EB000C43F1000399020023FD
:103148004FEA8C2041EA9C51FDF75EFDD1E71F4B09
:103158005A6802F03F025B6813F4800F10D01B4BD3
:103168005968C1F388111B480023A1FB0001FDF732
:103178004BFD164B5B68C3F30273B0FBF3F0A3E798
:10318800124B5868C0F388104FEA401CBCEB000C87
:103198006EEB0E0E4FEA8E1343EA9C634FEA8C11D6
:1031A800B1EB0C0163EB0E03DB0043EA5173C9007A
:1031B80011EB000C43F10003990200234FEA8C2025
:1031C80041EA9C51FDF720FDD3E700BF00380240DB
:1031D8000024F40040787D01002800F0018270B5D9
:1031E80082B00446036813F0010F41D0994B9B68E5
:1031F80003F00C03042B32D0964B9B6803F00C03AE
:10320800082B27D0934B9B6803F00C030C2B59D049
:103218006368B3F5803F5BD0B3F5A02F5ED08D4BCC
:103228001A6822F480321A601A6822F480221A601E
:103238006368002B5CD000F055FE0546854B1B6883
:1032480013F4003F14D100F04DFE401B6428F5D95B
:103258000320CCE17F4B5B6813F4800FD2D07D4B09
:103268001B6813F4003F03D06368002B00F0BA8199
:10327800236813F0020F60D0764B9B6813F00C0F95
:103288004AD0744B9B6803F00C03082B3FD0714B5A
:103298009B6803F00C030C2B69D0E368002B75D0F6
:1032A8006D4B01221A6000F01DFE0546694B1B6834
:1032B80013F0020F61D100F015FE401B0228F5D96A
:1032C800032094E1634B5B6813F4800FA0D0C6E73A
:1032D800604A136843F480331360A9E75D4B1A68AA
:1032E80042F480221A601A6842F480321A609FE71A
:1032F80000F0F8FD0546574B1B6813F4003FB7D0A4
:1033080000F0F0FD401B6428F5D903206FE1514B14
:103318005B6813F4800FBAD14E4B1B6813F0020F91
:1033280003D0E368012B40F05F814A4A136823F019
:10333800F803216943EAC1031360236813F0080FF7
:1033480049D06369002B33D0434B0122C3F8802E48
:1033580000F0C8FD05463F4B5B6F13F0020F3AD1F2
:1033680000F0C0FD401B0228F5D903203FE1394B8E
:103378005B6813F4800F90D1CEE7364A136823F0C8
:10338800F803216943EAC1031360D6E7324B0022F0
:103398001A6000F0A7FD05462E4B1B6813F0020FBC
:1033A800CBD000F09FFD401B0228F5D903201EE179
:1033B800294B0022C3F8802E00F094FD0546254BCA
:1033C8005B6F13F0020F06D000F08CFD401B022843
:1033D800F5D903200BE1236813F0040F76D01D4BB9
:1033E8001B6C13F0805F33D100230193194B1A6CC7
:1033F80042F080521A641B6C03F080530193019BC6
:103408000125164B1B6813F4807F29D0A368012B74
:103418003AD0052B3ED00F4B1A6F22F001021A67E3
:103428001A6F22F004021A67A368002B3CD000F040
:1034380059FD0646074B1B6F13F0020F45D100F0EC
:1034480051FD801B41F288339842F3D90320CEE026
:103458000025D6E7003802400000474200700040CF
:103468006B4A136843F48073136000F03BFD064613
:10347800674B1B6813F4807FC8D100F033FD801BB5
:103488000228F5D90320B2E0624A136F43F0010322
:103498001367C9E75F4B1A6F42F004021A671A6F85
:1034A80042F001021A67BFE700F01CFD0646594BBF
:1034B8001B6F13F0020F08D000F014FD801B41F2BF
:1034C80088339842F3D9032091E0EDB9A369002B22
:1034D80000F08C804F4A926802F00C02082A54D0FF
:1034E800022B17D04C4B00221A6600F0FBFC044656
:1034F800484B1B6813F0007F45D000F0F3FC001B1D
:103508000228F5D9032072E0424A136C23F0805355
:103518001364DBE7404B00221A6600F0E3FC054623
:103528003C4B1B6813F0007F06D000F0DBFC401B0F
:103538000228F5D903205AE0E369226A1343626A34
:1035480043EA8213A26A5208013A43EA0243E26A52
:1035580043EA0263226B43EA02732E4A53602E4BFE
:1035680001221A6600F0BEFC04462A4B1B6813F0C1
:10357800007F06D100F0B6FC001B0228F5D9032015
:1035880035E0002033E0002031E0012B31D0214B21
:103598005B6803F48001E26991422CD103F03F0299
:1035A800216A8A4229D1616A47F6C0721A40B2EB91
:1035B800811F24D103F44031A26A5208013AB1EBC9
:1035C800024F1ED103F07062E16AB2EB016F1AD1AB
:1035D80003F0E043226BB3EB027F16D1002006E034
:1035E80001207047012002E0012000E0002002B025
:1035F80070BD0120FBE70120F9E70120F7E7012072
:10360800F5E70120F3E70120F1E70120EFE700BF2C
:1036180000700040003802400000474200230F2B92
:1036280000F2E38070B582B065E085684FEA430E2A
:10363800032404FA0EF425EA0405CC6804FA0EF40F
:103648002C438460446824EA02044A68C2F30012E6
:103658009A40224342605CE0DC08083450F8242099
:1036680003F00705AD004FF00F0E0EFA05FE22EA33
:103678000E0E0A69AA4042EA0E0240F824205CE0D5
:10368800062200E0002202FA0EF22A430234574DC5
:1036980045F82420564A94686FEA0C0224EA0C057F
:1036A8004E6816F4801F01D04CEA0405504CA56002
:1036B800E46802EA04054E6816F4001F01D04CEADB
:1036C80004054B4CE560646802EA04054E6816F48C
:1036D800003F01D04CEA0405454C6560246822404F
:1036E8004D6815F4803F01D04CEA0402404C22603A
:1036F80001330F2B77D801229A400C6804EA020C98
:1037080032EA0404F4D14C6804F00304013C012CAF
:103718008BD94A6802F00302032A09D0C4685D0005
:103728000322AA4024EA02048A68AA402243C2600B
:103738004A6802F00302022A8ED004684FEA430E58
:10374800032202FA0EF224EA02044A6802F0030293
:1037580002FA0EF2224302604A6812F4403FC7D0D0
:1037680000220192234A546C44F480445464526CFD
:1037780002F480420192019A9C08A51C1B4A52F847
:10378800255003F0030E4FEA8E0E0F2202FA0EF2B6
:1037980025EA0205184A90423FF474AF02F58062A8
:1037A800904216D002F58062904214D002F58062F1
:1037B800904212D002F58062904210D002F58062E9
:1037C80090420ED002F5806290423FF459AF072232
:1037D80059E7012257E7022255E7032253E704225B
:1037E80051E705224FE702B070BD7047003801402D
:1037F800003C014000380240000002400AB18161EB
:10380800704709048161704730B405682C6824F456
:1038180080242C60046863608368402B05D00368AB
:1038280099600368DA6030BC704703689A6003687F
:10383800D960F8E710B40368D9B210390C4AA2FB72
:10384800014212090B4CA25CC2655F2909D923F415
:103858007F7323F0030304338365806D5DF8044BA5
:10386800704723F47F7323F003038365F5E700BFF4
:10387800ABAAAAAA60AA0008836A826992B9012B36
:103888000AD0022B02D00BB100207047C36A13F094
:10389800807F28D100207047C36AB3F1C07F24D04D
:1038A80000207047B2F5005F09D0022B25D9032B01
:1038B80025D1C36A13F0807F23D100207047032BE2
:1038C80003D8DFE803F01404140A00207047C36A21
:1038D80013F0807F0DD100207047C36AB3F1C07F19
:1038E80009D000207047012070470120704701204F
:1038F8007047012070470120704701207047002061
:10390800704701207047000070B5044600F0EAFADD
:10391800002C5BD00546022384F83530002384F858
:1039280034302268136823F00103136023681A688F
:1039380012F0010F0AD000F0D5FA431B052BF5D978
:1039480020236365032084F8350070BD1A68204978
:1039580011406268A0680243E0680243206902439C
:1039680060690243A0690243E0690243206A024396
:103978000A43616A04291ED01A602668756925F011
:103988000705636A1D43042B07D1A36A1D43E36A35
:103998001BB12046FFF770FF90B975612046FFF70D
:1039A80049FFE26D3F239340836000206065012357
:1039B80084F83530C9E7E16A206B01430A43DBE745
:1039C80040236365012084F83500BEE70120BCE789
:1039D8003F8010F038B50446856D90F83400012812
:1039E8002BD0012084F8340094F83500C0B20128A7
:1039F80004D0002384F83430022038BD022084F833
:103A08003500002060652046FFF7FEFEE26D3F238B
:103A18009340AB602268136843F016031360236C6D
:103A280023B12268136843F00803136022681368FF
:103A380043F0010313600020DFE70220DDE770B5E3
:103A48000446866D00F04EFA94F83530DBB2022B4E
:103A580006D080236365002384F83430012070BDCC
:103A680005462268136823F0160313602268536919
:103A780023F080035361236CE3B12268136823F0B9
:103A8800080313602268136823F001031360236896
:103A98001B6813F0010F11D000F024FA431B052B0B
:103AA800F5D920236365032084F83500002384F8C2
:103AB8003430D4E7A36C002BDFD1E3E7E26D3F237A
:103AC8009340B360012384F83530002084F8340033
:103AD800C5E790F83530DBB2022B03D0802343656D
:103AE80001207047052380F835300268136823F0F9
:103AF8000103136000207047F0B583B0044600232B
:103B08000193724B1D68724BA3FB0535AD0A876D97
:103B18003E68C26D08239340334210D003681A6888
:103B280012F0040F0BD01A6822F004021A60C26D5A
:103B380008239340BB60436D43F001034365E26D86
:103B480001239340334209D02268526912F0800F52
:103B580004D0BB60636D43F002036365E26D042328
:103B68009340334209D02268126812F0020F04D041
:103B7800BB60636D43F004036365E26D10239340FB
:103B8800334224D02268126812F0080F1FD0BB609D
:103B980023681A6812F4802F0DD01B6813F4002FC5
:103BA80004D1236C9BB12046984710E0A36C73B1F5
:103BB800204698470BE01A6812F4807F03D11A68F0
:103BC80022F008021A60236C0BB120469847E26D78
:103BD80020239340334255D02268126812F0100F08
:103BE80050D0BB6094F83530DBB2052B0ED023687B
:103BF8001A6812F4802F33D01B6813F4002F2AD1CF
:103C0800636C002B3ED0204698473BE0226813683F
:103C180023F0160313602268536923F0800353616D
:103C2800236CA3B12268136823F008031360E26DC4
:103C38003F239340BB60012384F83530002384F888
:103C48003430236D002B3FD0204698473CE0A36CCE
:103C5800002BE7D1EBE7E36BA3B12046984711E0CF
:103C68001A6812F4807F09D11A6822F010021A60CB
:103C7800012384F83530002384F83430E36B0BB12A
:103C880020469847636DFBB1636D13F0010F17D0A1
:103C9800052384F835302268136823F00103136084
:103CA800019B01330193AB4204D823681B6813F0CE
:103CB800010FF5D1012384F83530002384F834301E
:103CC800E36C0BB12046984703B0F0BD0C00002010
:103CD800B5814E1B406D704710B582B0002301932B
:103CE800194B1A6C42F080521A641B6C03F0805313
:103CF8000193019B154B01221A6400F0F3F8044666
:103D0800134B5B6813F4803F08D100F0EBF8001BFD
:103D1800B0F57A7FF4D9032002B010BD0B4B012215
:103D28005A6400F0DFF80446094B5B6813F4003F5F
:103D380007D100F0D7F8001BB0F57A7FF4D903203B
:103D4800EAE70020E8E700BF0038024000000E4222
:103D580000700040002807DB00F01F024009012323
:103D68009340024A42F82030704700BF00E100E06B
:103D7800002808DB0901C9B200F1604000F5614084
:103D880080F80013704700F00F000901C9B2014B19
:103D98001954704714ED00E000B500F00700C0F1B9
:103DA800070CBCF1040F28BF4FF0040C031D062BB1
:103DB8000FD9C31E4FF0FF3E0EFA0CF021EA0001A6
:103DC80099400EFA03FE22EA0E0241EA02005DF86B
:103DD80004FB0023EEE70000074AD36823F4E063FE
:103DE8001B041B0C000200F4E060034343F0BF63B4
:103DF80043F40033D360704700ED00E010B504468B
:103E0800054BD868C0F30220FFF7C6FF01462046DD
:103E1800FFF7AEFF10BD00BF00ED00E008B5FFF7EB
:103E280099FF08BD0138B0F1807F0BD24FF0E02335
:103E38005861054AF02182F8231000209861072272
:103E48001A6170470120704700ED00E010B5044684
:103E58000E4B1A784FF47A73B3FBF2F30C4A1068DE
:103E6800B0FBF3F0FFF7DEFF68B90F2C01D9012092
:103E78000AE0002221464FF0FF30FFF7BFFF054B55
:103E88001C60002000E0012010BD00BF04000020DD
:103E98000C0000200800002008B50B4B1A6842F4FB
:103EA80000721A601A6842F480621A601A6842F452
:103EB80080721A600320FFF78FFF0F20FFF7C6FFFD
:103EC800FEF7ACFC002008BD003C0240034A116824
:103ED800034B1B780B441360704700BFF4020020AB
:103EE80004000020014B1868704700BFF40200204E
:103EF80038B50446FFF7F6FF0546B4F1FF3F02D098
:103F0800044B1B781C44FFF7EDFF401BA042FAD37B
:103F180038BD00BF0400002030B4036A026A22F0F2
:103F2800010202624268846924F0730C0C6844EA56
:103F38000C0423F0020C8B6843EA0C03114DA842D1
:103F480003D005F58065A84205D123F00803CD68A4
:103F58002B4323F004030B4DA84203D005F58065DD
:103F6800A84207D122F440724D6945EA020C8A69D9
:103F780042EA0C02426084614A684263036230BCD0
:103F8800704700BF0000014030B4036A026A22F49F
:103F9800807202624268C46924F0730C0C6844EAB7
:103FA8000C0523F400738C6843EA0423114CA042E7
:103FB80003D004F58064A04206D123F40063CC68E2
:103FC80043EA042323F480630A4CA04203D004F597
:103FD8008064A04207D122F440524C6942EA04129C
:103FE8008C6942EA04124260C5614A68C26303628E
:103FF80030BC70470000014030B4036A026A22F402
:10400800805202624468C26922F4E6420D6842EABC
:10401800052223F400538D6843EA0533094DA8426D
:1040280003D005F58065A84204D124F480444D6985
:1040380044EA85144460C2614A680264036230BC81
:10404800704700BF0000014090F83D30DBB2012B03
:1040580037D1022380F83D300268D36843F001036A
:10406800D3600368194A934220D0B3F1804F1DD022
:10407800A2F57C42934219D002F58062934215D092
:1040880002F58062934211D002F5784293420DD036
:1040980002F57052934209D0A2F59432934205D0AA
:1040A8001A6842F001021A60002070479A6802F00C
:1040B8000702062A07D01A6842F001021A60002097
:1040C8007047012070470020704700BF0000014082
:1040D800704770477047704770B504460368DE68DC
:1040E8001D6915F0020F10D016F0020F0DD06FF0F9
:1040F80002021A610123037703689B6913F0030F17
:104108005ED0FFF7E6FF0023237715F0040F12D0E7
:1041180016F0040F0FD023686FF004021A6102230F
:10412800237723689B6913F4407F4FD02046FFF71D
:10413800D0FF0023237715F0080F12D016F0080FD0
:104148000FD023686FF008021A61042323772368CD
:10415800DB6913F0030F40D02046FFF7BAFF0023B6
:10416800237715F0100F12D016F0100F0FD0236818
:104178006FF010021A61082323772368DB6913F4B0
:10418800407F31D02046FFF7A4FF0023237715F0A6
:10419800010F02D016F0010F2DD115F0800F02D0BB
:1041A80016F0800F2FD115F0400F02D016F0400FF7
:1041B80031D115F0200F02D016F0200F33D170BD89
:1041C800FFF786FF2046FFF785FF9CE72046FFF7AD
:1041D8007FFF2046FFF77EFFABE72046FFF778FF1B
:1041E8002046FFF777FFBAE72046FFF771FF204622
:1041F800FFF770FFC9E723686FF001021A612046D4
:10420800FDF710FEC9E723686FF080021A612046A7
:1042180000F055FAC7E723686FF040021A6120469C
:10422800FFF759FFC5E723686FF020021A6120469F
:1042380000F044FAC3E700000368344A904212D001
:10424800B0F1804F0FD0A2F57C4290420BD002F51E
:104258008062904207D002F58062904203D002F556
:104268007842904203D123F070034A681343274AE7
:1042780090422AD0B0F1804F27D0A2F57C429042DC
:1042880023D002F5806290421FD002F580629042EE
:104298001BD002F57842904217D002F57052904236
:1042A80013D002F5806290420FD002F580629042EE
:1042B8000BD0A2F59832904207D002F58062904266
:1042C80003D002F58062904203D123F44073CA6898
:1042D800134323F080034A69134303608B68C36266
:1042E8000B688362094B984203D003F580639842B8
:1042F80001D10B69036301234361036913F0010FC3
:1043080003D0036923F001030361704700000140F3
:1043180040B310B5044690F83D30F3B1022384F859
:104328003D30214651F8040BFFF786FF012384F83E
:10433800463084F83E3084F83F3084F8403084F8C2
:10434800413084F8423084F8433084F8443084F8AB
:10435800453084F83D30002010BD80F83C30FDF732
:1043680065FFDBE70120704740B310B5044690F8BD
:104378003D30F3B1022384F83D30214651F8040B57
:10438800FFF75AFF012384F8463084F83E3084F85A
:104398003F3084F8403084F8413084F8423084F863
:1043A800433084F8443084F8453084F83D300020A8
:1043B80010BD80F83C30FDF7EDFEDBE701207047CB
:1043C80030B4036A026A22F0100202624468826909
:1043D80022F4E6420D6842EA052223F020038D68A4
:1043E80043EA0513114DA84203D005F58065A8429C
:1043F80006D123F08003CD6843EA051323F0400378
:104408000A4DA84203D005F58065A84207D124F4D7
:1044180040644D6944EA85048D6944EA8504446032
:1044280082614A688263036230BC704700000140C1
:1044380038B590F83C30012B66D004460D46012370
:1044480080F83C300C2A5AD8DFE802F0075959594D
:104458001B5959593059595944000068FFF75CFDF8
:104468002268936943F0080393612268936923F0F3
:10447800040393612268936929690B4393610020BF
:104488003EE00068FFF79CFF2268936943F40063ED
:1044980093612268936923F4806393612268936926
:1044A800296943EA01239361002029E00068FFF7A6
:1044B8006BFD2268D36943F00803D3612268D3698E
:1044C80023F00403D3612268D36929690B43D361BC
:1044D800002015E00068FFF78FFD2268D36943F4D8
:1044E8000063D3612268D36923F48063D3612268AF
:1044F800D369296943EA0123D361002000E0012040
:10450800002384F83C3038BD0220FCE701F01F018D
:104518004FF0010C0CFA01FC036A23EA0C03036256
:10452800036A8A40134303627047000010B50446CB
:104538000846002942D194F83E30DBB2013B18BF4F
:104548000123002B6ED1002851D1022384F83E307C
:10455800012201462068FFF7D9FF2368334A9342B6
:1045680003D002F58062934203D15A6C42F40042B0
:104578005A6423682D4A934249D0B3F1804F46D0FC
:10458800A2F57C42934242D002F5806293423ED02B
:1045980002F5806293423AD002F57842934236D0CF
:1045A80002F57052934232D0A2F5943293422ED043
:1045B8001A6842F001021A60002032E0042908D08B
:1045C80008290DD094F84130DBB2013B18BF012314
:1045D800B7E794F83F30DBB2013B18BF0123B0E7DF
:1045E80094F84030DBB2013B18BF0123A9E7042847
:1045F80005D0082807D0022384F84130A8E7022311
:1046080084F83F30A4E7022384F84030A0E79A6892
:1046180002F00702062A07D01A6842F001021A605F
:10462800002010BD0120FCE70020FAE7000001404F
:1046380090F83C20012A3DD010B40346012280F8AE
:104648003C20022280F83D2002685068946820F0DF
:10465800700C086840EA0C0050601A6816488242DC
:104668001AD0B2F1804F17D0A0F57C40824213D007
:1046780000F5806082420FD000F5806082420BD046
:1046880000F57840824207D000F57050824203D08E
:10469800A0F59430824204D124F080044968214373
:1046A8009160012283F83D20002083F83C005DF8EA
:1046B800044B704702207047000001407047704764
:1046C800034AD2F8883043F47003C2F88830704740
:1046D80000ED00E010B503460C4A0D490D4800688E
:1046E80040B10C4800680344521A934206D8094A5C
:1046F800136010BD0748084C0460F2E704F0B4FFEB
:104708000C2303604FF0FF30F3E700BF00000220E6
:1047180000040000F8020020B8290020012070479A
:1047280008B504F0A1FF162303604FF0FF3008BD61
:1047380008B54FF0FF31FFF7F3FFFEE710B582B081
:1047480000240094364B1A6B42F480021A631A6BE9
:1047580002F480020092009A01941A6B42F400124B
:104768001A631B6B03F400130193019B2246214635
:104778000B20FFF743FB0B20FFF750FB2246214697
:104788000C20FFF73BFB0C20FFF748FB2246214695
:104798000D20FFF733FB0D20FFF740FB2246214693
:1047A8000E20FFF72BFB0E20FFF738FB2246214691
:1047B8000F20FFF723FB0F20FFF730FB224621468F
:1047C8001020FFF71BFB1020FFF728FB224621468D
:1047D8001120FFF713FB1120FFF720FB224621468B
:1047E8002F20FFF70BFB2F20FFF718FB224621464F
:1047F8003820FFF703FB3820FFF710FB224621463D
:104808003A20FFF7FBFA3A20FFF708FB2246214639
:104818004620FFF7F3FA4620FFF700FB02B010BD71
:104828000038024008B50A480A4B03604FF4613368
:10483800436000238360C36003610C22426183618B
:10484800C36100F014FC00B908BDFDF7F5FAFBE7F9
:10485800DC070020004C004008B50A480A4B0360FA
:104868004FF4E133436000238360C36003610C228B
:1048780042618361C36100F0FAFB00B908BDFDF72E
:10488800DBFAFBE7940700200050004008B50A480F
:104898000A4B03604FF4E133436000238360C36035
:1048A80003610C2242618361C36100F0E0FB00B93F
:1048B80008BDFDF7C1FAFBE74C07002000100140D6
:1048C80008B50A480A4B03604FF46133436000237C
:1048D8008360C36003610C2242618361C36100F09D
:1048E800C6FB00B908BDFDF7A7FAFBE704070020DF
:1048F8000044004008B50A480A4B03604FF41643C9
:10490800436000238360C36003610C2242618361BA
:10491800C36100F0ACFB00B908BDFDF78DFAFBE7F9
:10492800BC060020004800402DE9F04190B0044644
:1049380000230B930C930D930E930F930368794AFE
:10494800934211D0784A934270D0784A934200F04B
:104958000B81774A934200F06B81764A934200F0CC
:10496800CA8110B0BDE8F08100250095724B1A6C21
:1049780042F400221A641A6C02F400220092009A8F
:1049880001951A6B42F001021A631B6B03F00103D5
:104998000193019B03230B9302220C920E9308238D
:1049A8000F930BA96548FEF739FE6548654B036010
:1049B8004FF0006343608560C5604FF48063036116
:1049C800456185614FF48073C36105624562FEF7F6
:1049D8009BFF28BB5A4BE3639C635B485B4B0360BC
:1049E8004FF000634360402383600023C3604FF4AB
:1049F80080620261436183614FF48072C261036225
:104A08004362FEF781FF70B94F4BA3639C6300229A
:104A180011463420FFF7F2F93420FFF7FFF9A0E739
:104A2800FDF70AFAD6E7FDF707FAEDE70025029544
:104A3800414B1A6C42F480121A641A6C02F4801208
:104A48000292029A03951A6B42F004021A631A6BD7
:104A580002F004020392039A04951A6B42F00802CA
:104A68001A631B6B03F008030493049B4FF48053F1
:104A78000B934FF00208CDF8308003270E970826D5
:104A88000F960BA93248FEF7C9FD04230B93CDF806
:104A980030800D950E970F960BA92E48FEF7BEFD98
:104AA8002D482E4B03604FF0006343608560C5605E
:104AB8004FF480630361456185614FF48073C3617E
:104AC80005624562FEF720FF28BB234BE3639C6326
:104AD8002348244B03604FF0006343604023836006
:104AE8000023C3604FF480620261436183614FF425
:104AF8008072C26103624362FEF706FF70B9184B09
:104B0800A3639C63002211463520FFF777F935200F
:104B1800FFF784F925E7FDF78FF9D6E7FDF78CF95C
:104B2800EDE700BF004C004000500040001001407D
:104B380000440040004800400038024000000240A5
:104B48005C06002040600240FC05002070600240C6
:104B580000080240000C02409C0500201060024042
:104B68003C050020B860024000250595944B5A6C1E
:104B780042F010025A645A6C02F010020592059A2B
:104B880006951A6B42F001021A631B6B03F00103CE
:104B98000693069B4FF4C0630B9302230C930323E5
:104BA8000E9307230F930BA98648FEF737FD864817
:104BB800864B03604FF0006343608560C5604FF427
:104BC80080630361456185614FF48073C361056249
:104BD8004562FEF799FE28BB7B4BE3639C637C48E8
:104BE8007C4B03604FF000634360402383600023E5
:104BF800C3604FF480620261436183614FF4807245
:104C0800C26103624362FEF77FFE70B9704BA36313
:104C18009C63002211462520FFF7F0F82520FFF7B6
:104C2800FDF89EE6FDF708F9D6E7FDF705F9EDE78B
:104C380000250795624B1A6C42F400321A641A6C0C
:104C480002F400320792079A08951A6B42F00102A3
:104C58001A631B6B03F001030893089B0C230B9347
:104C680002230C9303230E9307230F930BA9554894
:104C7800FEF7D4FC5848594B03604FF0006343607B
:104C88008560C5604FF480630361456185614FF4B9
:104C98008073C36105624562FEF736FE28BB4E4B42
:104CA800E3639C634E484F4B03604FF000634360DF
:104CB800402383600023C3604FF480620261436134
:104CC80083614FF48072C26103624362FEF71CFE87
:104CD80070B9434BA3639C63002211462620FFF75B
:104CE8008DF82620FFF79AF83BE6FDF7A5F8D6E7FA
:104CF800FDF7A2F8EDE700250995314B1A6C42F44F
:104D080080221A641A6C02F480220992099A0A9580
:104D18001A6B42F004021A631B6B03F004030A9334
:104D28000A9B4FF440630B9302230C9303230E93C7
:104D380007230F930BA92C48FEF770FC2B482C4B2C
:104D480003604FF0006343608560C5604FF4806383
:104D58000361456185614FF48073C36105624562F3
:104D6800FEF7D2FD28BB214BE3639C632148224B0D
:104D780003604FF000634360402383600023C360F7
:104D88004FF480620261436183614FF48072C261B3
:104D980003624362FEF7B8FD70B9164BA3639C63C8
:104DA800002211462720FFF729F82720FFF736F8B9
:104DB800D7E5FDF741F8D6E7FDF73EF8EDE700BF88
:104DC8000038024000000240DC0400204064024039
:104DD8007C040020B86402401C0400208860024063
:104DE800BC030020A0600240000802405C030020D1
:104DF80028600240FC02002058600240026802F16C
:104E08000C0353E8003F23F0C0030C3242E80031A2
:104E18000029F3D1202380F841307047026802F15D
:104E28000C0353E8003F23F490730C3242E800313E
:104E38000029F3D1026802F1140353E8003F23F07C
:104E48000103143242E800310029F3D1036B012B2E
:104E580005D0202380F8423000230363704702689E
:104E680002F10C0353E8003F23F010030C3242E830
:104E780000310029F3D1ECE790F84130DBB2212B67
:104E880001D0022070478368B3F5805F17D0036AAA
:104E98005A1C02621A7803685A60C38C9BB2013BA1
:104EA8009BB2C3844BB90268D36823F08003D360F4
:104EB8000268D36843F04003D36000207047036959
:104EC800002BE4D1036A1B880268C3F3080353600C
:104ED800036A02330362E0E710B504460268136907
:104EE80023F44053C1680B431361836802691A4372
:104EF80043691A43C3691A430168CB6823F416430C
:104F080023F00C031343CB600268536923F4407306
:104F180081690B4353610368314A934206D002F515
:104F28008062934202D0FEF7A3F801E0FEF7B0F8E2
:104F3800E369B3F5004F29D00021031849411B1834
:104F480041F10001C90041EA5371DB001818636898
:104F58004FEA83024FEA937341F10001FBF754FED5
:104F6800204AA2FB00314909642303FB11031B01FA
:104F78003233A2FB03235B0903F0F00202EB0112B8
:104F880003F00F03216813448B6010BD002302183F
:104F980043EB0301121841F10001C90041EA5271C3
:104FA800D200101841F10001626892185B41FBF7CA
:104FB8002BFE0C4AA2FB00314909642303FB1103B1
:104FC800DB003233A2FB03235B095A0002F4F872B8
:104FD80002EB011203F00703216813448B60D4E746
:104FE800001001401F85EB512DE9F04383B00546C1
:104FF8000E4617469946DDF828802B681C6836EA65
:1050080004040CBF01240024BC4228D1B8F1FF3F9E
:10501800F3D0FEF767FFA0EB0900404523D8B8F1AD
:10502800000F22D02B68DA6812F0040FE5D0802E2A
:10503800E3D0402EE1D01A6812F0080FDDD000242A
:1050480001941A6801925B680193019B2846FFF757
:10505800E5FE08236B6485F84040012000E000204D
:1050680003B0BDE8F0830320FAE70320F8E760B354
:1050780010B5044690F8413013B3242384F8413026
:105088002268D36823F40053D3602046FFF724FF37
:105098002268136923F4904313612268536923F04B
:1050A8002A0353612268D36843F40053D360002075
:1050B8006064202384F8413084F84230606310BD76
:1050C80080F84030FFF730FCD7E7012070472DE922
:1050D800F04182B01E4690F84130DBB2202B56D109
:1050E80004460D469046002955D00AB901204FE0E4
:1050F80000234364212380F84130FEF7F3FE07467E
:10510800A4F82480A4F82680A368B3F5805F02D0B1
:105118004FF0000814E023692BB34FF000080FE0AC
:10512800202384F84130032032E038F8023B22681B
:10513800C3F308035360E28C92B2013A92B2E2845C
:10514800E38C9BB293B100963B4600228021204617
:10515800FFF74AFF0028E3D1002DE6D015F8012B10
:1051680023685A60E7E7A8460025E9E700963B462A
:10517800002240212046FFF737FF18B9202384F882
:10518800413005E0202384F84130032000E002206C
:1051980002B0BDE8F0810120FAE710B504462268A4
:1051A80002F10C0353E8003F23F4F0730C3242E899
:1051B80000310029F3D1226802F1140353E8003FBB
:1051C80023F00103143242E800310029F3D1236BA4
:1051D800012B3CD023685B6913F0800F13D0226841
:1051E80002F1140353E8003F23F08003143242E82D
:1051F80000310029F3D1A36B2BB100221A65A06BF3
:10520800FEF71DFC80BB23685B6913F0400F13D0C9
:10521800226802F1140353E8003F23F040031432DC
:1052280042E800310029F3D1E36B2BB100221A6563
:10523800E06BFEF704FC00BB0020E084E0856064BE
:10524800202384F8423084F84130206310BD22685E
:1052580002F10C0353E8003F23F010030C3242E83C
:1052680000310029F3D1B5E7A06BFEF733FD202804
:10527800C9D1102363640320E8E7E06BFEF72AFD39
:105288002028D9D1102363640320DFE7704708B5CD
:105298000168CA6822F04002CA60202280F84120D2
:1052A800FFF7F4FF002008BD70477047704710B53E
:1052B800846B23685A6994F84130DBB2212B10D0F3
:1052C80023685A6902F0400294F84230DBB2222B7C
:1052D80011D0636C43F0100363642046FFF7E6FFC8
:1052E80010BD02F08002002AEAD00023E3842046A1
:1052F800FFF784FDE4E7002AEBD00023E38520468E
:10530800FFF78CFDE5E708B5806B0023C385C384F0
:10531800FFF7CCFF08BD704790F84230DBB2222B74
:1053280069D18368B3F5805F4FD0826AB3F5805F37
:1053380004D0002B56D10369002B53D103685B6856
:105348001370836A01338362C38D9BB2013B9BB2A6
:10535800C385002B51D100B583B00268D36823F010
:105368002003D3600268D36823F48073D360026893
:10537800536923F001035361202380F8423000234E
:105388004363036B012B33D100230363026802F1EB
:105398000C0353E8003F23F010030C3242E80031BD
:1053A8000029F3D103681A6812F0100F06D0002202
:1053B80001921A6801925B680193019B818DFFF746
:1053C800AAFF002003B05DF804FB0269002AACD1F3
:1053D800826A03685B68C3F308031380836A023335
:1053E8008362B1E703685B6803F07F031370A8E783
:1053F800FFF75AFFE5E702207047002070470000DA
:1054080010B582B0044602681368D068516913F079
:105418000F0F09D113F0200F0CD010F0200F09D076
:105428002046FFF779FF16E011F0010115D110F4BD
:10543800907F12D1216B012979D013F0800F03D00E
:1054480010F0800F40F0148113F0400F03D010F0DB
:10545800400F40F0118102B010BD13F0010F06D0CB
:1054680010F4807F03D0626C42F00102626413F092
:10547800040F04D019B1626C42F00202626413F0A6
:10548800020F04D019B1626C42F00402626413F096
:10549800080F07D010F0200F00D119B1626C42F04C
:1054A80008026264626C002AD5D013F0200F02D083
:1054B80010F0200F29D123685B6903F04003626C68
:1054C80012F0080F00D163B32046FFF7A7FC23684A
:1054D8005B6913F0400F20D0226802F1140353E8EF
:1054E800003F23F04003143242E800310029F3D191
:1054F800E36B73B1624A1A65E06BFEF7EAFA0028BB
:10550800A9D0E06B036D9847A5E72046FFF704FF95
:10551800D1E72046FFF7CAFE9DE72046FFF7C6FE03
:1055280099E72046FFF7C2FE0023636493E713F070
:10553800100F82D010F0100F3FF47FAF00230193BB
:105548001368019353680193019B536913F0400F4B
:1055580052D0E26B13685B689BB2002B3FF47BAFC1
:10556800A18D99427FF677AFE385D369B3F5807F44
:1055780037D0226802F10C0353E8003F23F480730C
:105588000C3242E800310029F3D1226802F11403F9
:1055980053E8003F23F00103143242E800310029A8
:1055A800F3D1226802F1140353E8003F23F04003CB
:1055B800143242E800310029F3D1202384F8423024
:1055C80000232363226802F10C0353E8003F23F011
:1055D80010030C3242E800310029F3D1E06BFEF7EA
:1055E8002EFA02236363A18DE38D9BB2C91A89B297
:1055F8002046FFF790FE2EE7A18DE38D9BB2C91AD6
:1056080089B2E38D9BB2002B3FF425AF00293FF40C
:1056180022AF226802F10C0353E8003F23F4907391
:105628000C3242E800300028F3D1226802F114035A
:1056380053E8003F23F00103143242E80030002809
:10564800F3D1202384F8423000232363226802F137
:105658000C0353E8003F23F010030C3242E80030FB
:105668000028F3D1022363632046FFF754FEF2E6D5
:105678002046FFF701FCEEE62046FFF708FEEAE6C3
:105688000F53000808B5806B01234363036B012B9C
:1056980002D0FFF70AFE08BD818D4908FFF73BFEDF
:1056A800F9E708B50346806B1B681B6813F4807F15
:1056B8002BD10023C385026802F10C0353E8003F95
:1056C80023F480730C3242E800310029F3D10268D8
:1056D80002F1140353E8003F23F00103143242E8B7
:1056E80000310029F3D1026802F1140353E8003FA6
:1056F80023F04003143242E800310029F3D120237B
:1057080080F84230036B012B07D000234363036BFF
:10571800012B0FD0FFF7C8FD08BD026802F10C038A
:1057280053E8003F23F010030C3242E8003100290F
:10573800F3D1EAE7818DFFF7EEFDEDE730B583B0F1
:10574800044613468162828500254564222280F83A
:105758004220C26B1F48D063E26B1F481064E26BA3
:105768001E48D064E26B156520680A46011DE06B8F
:10577800FEF730F9019523681A6801925B68019376
:10578800019B23695BB1226802F10C0353E8003FD7
:1057980043F480730C3242E800310029F3D12268C7
:1057A80002F1140353E8003F43F00103143242E8C6
:1057B80000310029F3D1226802F1140353E8003FB5
:1057C80043F04003143242E800310029F3D10020AD
:1057D80003B030BDAB5600088D560008B75200081C
:1057E80008B590F84230DBB2202B08D149B10AB98C
:1057F800012008BD00230363FFF7A0FFF9E702209B
:10580800F7E70120F5E70000DFF834D0FEF758FF8E
:105818000C480D490D4A002302E0D458C450043303
:10582800C4188C42F9D30A4A0A4C002301E01360D9
:105838000432A242FBD303F01DFFFCF755FB70476F
:105848000000022000000020800000208CB000082A
:1058580080000020B8290020FEE7000000000000BA
:1058680038B52DED028B05469FED258A254C9FED19
:10587800261AF0EE480A9FED250A204600F0ACFEF5
:105888009FED1B1B9FED1C0B204600F0CDFE6421F5
:10589800204600F0B8FE0021204600F0CAFE1C4C4D
:1058A8009FED1C1AF0EE480A9FED1B0A204600F0F7
:1058B80093FEA86980F00045FAF706FE41EC180B44
:1058C8002846FAF701FEB0EE481AF0EE681A41ECE5
:1058D800100B204600F0A8FE6421204600F093FE3D
:1058E8000021204600F0A5FEBDEC028B38BD00BFAC
:1058F800000000000000004000000000000000C0A0
:1059080000000000900800200AD7A33CCDCC4C3EF4
:10591800280800200AD7233CCDCC4C3D012800D0D4
:10592800704708B54FF6FF73994200D008BD034889
:1059380000F048FE024800F045FEF7E79008002016
:10594800280800200000000070B52DED048B0446E7
:105958000E46CB4B1B78002B00F0DC80D4ED150AEB
:105968009FEDC80AC84800F067FE94F8503000EE72
:10597800903AF8EE600AB3EE040AC44800F05CFE00
:10598800B4F94E00304400F075FD05B2D4ED157A37
:10599800F5EEC07AF1EE10FA40F3C280B3EE007A69
:1059A800F4EEC77AF1EE10FA00F2ED8085EAE573BD
:1059B800A3EBE5739BB21D2B00F2E58086EAE67344
:1059C800A3EBE6739BB2592B00F2B080AE4801F00E
:1059D8000DF8F0EE408AB3EE000A00F0CBFDB0EE11
:1059E800408A94ED150AB5EEC00AF1EE10FA40F3BC
:1059F8009A8000F0BFFD78EE407A17EE900AFAF729
:105A080063FD9BA3D3E90023FAF7B6FDFBF7ACF8D7
:105A180009EE100A94F85030142B00F2AE80F0EE24
:105A2800490AB0EE680A00F037FC05B294ED187A1E
:105A3800D4ED647A37EE277AD4ED197AD4ED656A15
:105A480077EEA67AB5EEC07AF1EE10FA40F37D81D2
:105A5800F0EE476AB6EE006AF4EEC66AF1EE10FAA6
:105A680005DD87EE266AB6EE007A26EE077AF5EEB1
:105A7800C07AF1EE10FA40F36B81F0EE676AB6EE89
:105A8800006AF4EEC66AF1EE10FA05DD87EEA66A42
:105A9800F6EE007A66EE277A38EE870A79EE270A5C
:105AA80020EE000A60EEA00A30EE200A00F062FD47
:105AB80086EAE673A3EBE6739BB25A2B08D9F6EE97
:105AC800087AB4EEE70AF1EE10FA01DDB0EE670AE3
